{
  "_format": "hh-sol-artifact-1",
  "contractName": "Swapify",
  "sourceName": "contracts/Swapify.sol",
  "abi": [
    {
      "inputs": [],
      "stateMutability": "nonpayable",
      "type": "constructor"
    },
    {
      "anonymous": false,
      "inputs": [
        {
          "indexed": false,
          "internalType": "address",
          "name": "seller",
          "type": "address"
        },
        {
          "indexed": false,
          "internalType": "address[]",
          "name": "swapTokens",
          "type": "address[]"
        },
        {
          "indexed": false,
          "internalType": "uint256[]",
          "name": "swapTokenIds",
          "type": "uint256[]"
        },
        {
          "indexed": false,
          "internalType": "address",
          "name": "buyer",
          "type": "address"
        },
        {
          "indexed": false,
          "internalType": "address[]",
          "name": "offerTokens",
          "type": "address[]"
        },
        {
          "indexed": false,
          "internalType": "uint256[]",
          "name": "offerTokenIds",
          "type": "uint256[]"
        }
      ],
      "name": "OfferAccepted",
      "type": "event"
    },
    {
      "anonymous": false,
      "inputs": [
        {
          "indexed": false,
          "internalType": "address",
          "name": "buyer",
          "type": "address"
        },
        {
          "indexed": false,
          "internalType": "uint256",
          "name": "swapId",
          "type": "uint256"
        },
        {
          "indexed": false,
          "internalType": "uint256",
          "name": "offerId",
          "type": "uint256"
        }
      ],
      "name": "OfferCancelled",
      "type": "event"
    },
    {
      "anonymous": false,
      "inputs": [
        {
          "indexed": false,
          "internalType": "address",
          "name": "buyer",
          "type": "address"
        },
        {
          "indexed": false,
          "internalType": "address[]",
          "name": "tokens",
          "type": "address[]"
        },
        {
          "indexed": false,
          "internalType": "uint256[]",
          "name": "tokenIds",
          "type": "uint256[]"
        }
      ],
      "name": "OfferProposed",
      "type": "event"
    },
    {
      "anonymous": false,
      "inputs": [],
      "name": "OfferRejected",
      "type": "event"
    },
    {
      "anonymous": false,
      "inputs": [
        {
          "indexed": false,
          "internalType": "address",
          "name": "seller",
          "type": "address"
        },
        {
          "indexed": false,
          "internalType": "address[]",
          "name": "tokens",
          "type": "address[]"
        },
        {
          "indexed": false,
          "internalType": "uint256[]",
          "name": "tokenIds",
          "type": "uint256[]"
        }
      ],
      "name": "SwapCreated",
      "type": "event"
    },
    {
      "inputs": [
        {
          "internalType": "uint256",
          "name": "_swapId",
          "type": "uint256"
        },
        {
          "internalType": "uint256",
          "name": "_offerId",
          "type": "uint256"
        }
      ],
      "name": "acceptOffer",
      "outputs": [],
      "stateMutability": "nonpayable",
      "type": "function"
    },
    {
      "inputs": [
        {
          "internalType": "uint256",
          "name": "_swapId",
          "type": "uint256"
        },
        {
          "internalType": "uint256",
          "name": "_offerId",
          "type": "uint256"
        }
      ],
      "name": "cancelOffer",
      "outputs": [],
      "stateMutability": "nonpayable",
      "type": "function"
    },
    {
      "inputs": [
        {
          "internalType": "address[]",
          "name": "_swapTokens",
          "type": "address[]"
        },
        {
          "internalType": "uint256[]",
          "name": "_swapTokenIds",
          "type": "uint256[]"
        },
        {
          "internalType": "string",
          "name": "_description",
          "type": "string"
        }
      ],
      "name": "createSwap",
      "outputs": [],
      "stateMutability": "nonpayable",
      "type": "function"
    },
    {
      "inputs": [
        {
          "internalType": "uint256",
          "name": "",
          "type": "uint256"
        },
        {
          "internalType": "uint256",
          "name": "",
          "type": "uint256"
        }
      ],
      "name": "offers",
      "outputs": [
        {
          "internalType": "enum Swapify.Status",
          "name": "status",
          "type": "uint8"
        },
        {
          "internalType": "address",
          "name": "buyer",
          "type": "address"
        },
        {
          "internalType": "uint256",
          "name": "swapId",
          "type": "uint256"
        }
      ],
      "stateMutability": "view",
      "type": "function"
    },
    {
      "inputs": [
        {
          "internalType": "uint256",
          "name": "_swapId",
          "type": "uint256"
        },
        {
          "internalType": "address[]",
          "name": "_offerTokens",
          "type": "address[]"
        },
        {
          "internalType": "uint256[]",
          "name": "_offerTokenIds",
          "type": "uint256[]"
        }
      ],
      "name": "proposeOffer",
      "outputs": [],
      "stateMutability": "nonpayable",
      "type": "function"
    },
    {
      "inputs": [],
      "name": "rejectOffer",
      "outputs": [],
      "stateMutability": "nonpayable",
      "type": "function"
    },
    {
      "inputs": [],
      "name": "swapCount",
      "outputs": [
        {
          "internalType": "uint256",
          "name": "",
          "type": "uint256"
        }
      ],
      "stateMutability": "view",
      "type": "function"
    },
    {
      "inputs": [
        {
          "internalType": "uint256",
          "name": "",
          "type": "uint256"
        }
      ],
      "name": "swaps",
      "outputs": [
        {
          "internalType": "enum Swapify.Status",
          "name": "status",
          "type": "uint8"
        },
        {
          "internalType": "string",
          "name": "description",
          "type": "string"
        },
        {
          "internalType": "address",
          "name": "seller",
          "type": "address"
        },
        {
          "internalType": "address",
          "name": "buyer",
          "type": "address"
        },
        {
          "internalType": "uint256",
          "name": "swapId",
          "type": "uint256"
        }
      ],
      "stateMutability": "view",
      "type": "function"
    },
    {
      "inputs": [],
      "name": "updateOffer",
      "outputs": [],
      "stateMutability": "nonpayable",
      "type": "function"
    },
    {
      "inputs": [
        {
          "internalType": "address",
          "name": "",
          "type": "address"
        },
        {
          "internalType": "uint256",
          "name": "",
          "type": "uint256"
        }
      ],
      "name": "userOffers",
      "outputs": [
        {
          "internalType": "enum Swapify.Status",
          "name": "status",
          "type": "uint8"
        },
        {
          "internalType": "address",
          "name": "buyer",
          "type": "address"
        },
        {
          "internalType": "uint256",
          "name": "swapId",
          "type": "uint256"
        }
      ],
      "stateMutability": "view",
      "type": "function"
    },
    {
      "inputs": [
        {
          "internalType": "address",
          "name": "",
          "type": "address"
        }
      ],
      "name": "userOffersCount",
      "outputs": [
        {
          "internalType": "uint256",
          "name": "",
          "type": "uint256"
        }
      ],
      "stateMutability": "view",
      "type": "function"
    },
    {
      "inputs": [
        {
          "internalType": "address",
          "name": "",
          "type": "address"
        }
      ],
      "name": "userSwapCount",
      "outputs": [
        {
          "internalType": "uint256",
          "name": "",
          "type": "uint256"
        }
      ],
      "stateMutability": "view",
      "type": "function"
    },
    {
      "inputs": [
        {
          "internalType": "address",
          "name": "",
          "type": "address"
        },
        {
          "internalType": "uint256",
          "name": "",
          "type": "uint256"
        }
      ],
      "name": "userSwaps",
      "outputs": [
        {
          "internalType": "enum Swapify.Status",
          "name": "status",
          "type": "uint8"
        },
        {
          "internalType": "string",
          "name": "description",
          "type": "string"
        },
        {
          "internalType": "address",
          "name": "seller",
          "type": "address"
        },
        {
          "internalType": "address",
          "name": "buyer",
          "type": "address"
        },
        {
          "internalType": "uint256",
          "name": "swapId",
          "type": "uint256"
        }
      ],
      "stateMutability": "view",
      "type": "function"
    }
  ],
  "bytecode": "0x608060405234801561001057600080fd5b50611799806100206000396000f3fe608060405234801561001057600080fd5b50600436106100cf5760003560e01c806381257bd51161008c578063d45557cc11610066578063d45557cc146101b1578063efd998ad146100d4578063f09c5829146101c4578063f5b55036146101d757600080fd5b806381257bd51461016757806387d2d3e61461017a578063bd5fec651461019e57600080fd5b80630cdf763f146100d4578063187e9e68146100d65780631baff551146101095780632eff0d9e1461011c5780634d03a9a514610125578063543aa9fe14610147575b600080fd5b005b6100f66100e43660046112dc565b60066020526000908152604090205481565b6040519081526020015b60405180910390f35b6100d4610117366004611326565b6101ea565b6100f660005481565b61013861013336600461147a565b6104a7565b604051610100939291906115e1565b6100f66101553660046112dc565b60056020526000908152604090205481565b6100d461017536600461147a565b6104f5565b61018d6101883660046112fd565b610b23565b604051610100959493929190611609565b6101386101ac3660046112fd565b610c0c565b6100d46101bf36600461147a565b610c28565b61018d6101d23660046113f8565b610e20565b6100d46101e5366004611410565b610e47565b815183511461022a5760405162461bcd60e51b8152602060048201526007602482015266042d8cadccee8d60cb1b60448201526064015b60405180910390fd5b600080546040805160e081018252600180825260208083018790523383850152606083018690526080830189905260a0830188905260c0830185905284865281905291909320835181549394938493839160ff1916908360048111156102a057634e487b7160e01b600052602160045260246000fd5b021790555060208281015180516102bd92600185019201906110c5565b5060408201516002820180546001600160a01b039283166001600160a01b031991821617909155606084015160038401805491909316911617905560808201518051610313916004840191602090910190611149565b5060a0820151805161032f91600584019160209091019061119e565b5060c09190910151600690910155336000908152600360209081526040822080546001818101835591845291909220835160079092020180548493919291839160ff19169083600481111561039457634e487b7160e01b600052602160045260246000fd5b021790555060208281015180516103b192600185019201906110c5565b5060408201516002820180546001600160a01b039283166001600160a01b031991821617909155606084015160038401805491909316911617905560808201518051610407916004840191602090910190611149565b5060a0820151805161042391600584019160209091019061119e565b5060c0919091015160069091015560008054908061044083611726565b909155505033600090815260056020526040812080549161046083611726565b91905055507fb51d5b2b6761a67ee39dec4e4fcfd559b7b91ec98ea3a04ff6b76e2653da72da3386866040516104989392919061152f565b60405180910390a15050505050565b600260205281600052604060002081815481106104c357600080fd5b60009182526020909120600490910201805460039091015460ff821693506101009091046001600160a01b0316915083565b60008281526001602052604090206002015482906001600160a01b031633146105565760405162461bcd60e51b815260206004820152601360248201527213db9b1e4814d95b1b195c88105b1b1bddd959606a1b6044820152606401610221565b6001600084815260026020526040902080548490811061058657634e487b7160e01b600052603260045260246000fd5b600091825260209091206004918202015460ff16908111156105b857634e487b7160e01b600052602160045260246000fd5b146105f75760405162461bcd60e51b815260206004820152600f60248201526e43616e7420416363657074206e6f7760881b6044820152606401610221565b60008381526001602090815260408083206002908101549252822080546001600160a01b0390921692918590811061063f57634e487b7160e01b600052603260045260246000fd5b600091825260208083206004928302015488845260018252604080852090930180548451818502810185019095528085526101009092046001600160a01b03169550918301828280156106bb57602002820191906000526020600020905b81546001600160a01b0316815260019091019060200180831161069d575b5050505050905060006001600088815260200190815260200160002060050180548060200260200160405190810160405280929190818152602001828054801561072457602002820191906000526020600020905b815481526020019060010190808311610710575b5050505050905060005b82518110156108145782818151811061075757634e487b7160e01b600052603260045260246000fd5b60200260200101516001600160a01b03166342842e0e868685858151811061078f57634e487b7160e01b600052603260045260246000fd5b60209081029190910101516040516001600160e01b031960e086901b1681526001600160a01b0393841660048201529290911660248301526044820152606401600060405180830381600087803b1580156107e957600080fd5b505af11580156107fd573d6000803e3d6000fd5b50505050808061080c90611726565b91505061072e565b50600087815260026020526040812080548890811061084357634e487b7160e01b600052603260045260246000fd5b90600052602060002090600402016001018054806020026020016040519081016040528092919081815260200182805480156108a857602002820191906000526020600020905b81546001600160a01b0316815260019091019060200180831161088a575b505050505090506000600260008a815260200190815260200160002088815481106108e357634e487b7160e01b600052603260045260246000fd5b906000526020600020906004020160020180548060200260200160405190810160405280929190818152602001828054801561093e57602002820191906000526020600020905b81548152602001906001019080831161092a575b5050505050905060005b8251811015610a2e5782818151811061097157634e487b7160e01b600052603260045260246000fd5b60200260200101516001600160a01b03166342842e0e87898585815181106109a957634e487b7160e01b600052603260045260246000fd5b60209081029190910101516040516001600160e01b031960e086901b1681526001600160a01b0393841660048201529290911660248301526044820152606401600060405180830381600087803b158015610a0357600080fd5b505af1158015610a17573d6000803e3d6000fd5b505050508080610a2690611726565b915050610948565b5060008981526001602090815260408083208054600360ff199091168117825590810180546001600160a01b0319166001600160a01b038b16179055600290925290912080548a908110610a9257634e487b7160e01b600052603260045260246000fd5b906000526020600020906004020160000160006101000a81548160ff02191690836004811115610ad257634e487b7160e01b600052602160045260246000fd5b02179055507fd8e10a064e68deb7801fcabc43361f2537ee211b2366c38ec20f01ab433ee714868585888686604051610b109695949392919061156f565b60405180910390a1505050505050505050565b60036020528160005260406000208181548110610b3f57600080fd5b60009182526020909120600790910201805460018201805460ff9092169450919250610b6a906116eb565b80601f0160208091040260200160405190810160405280929190818152602001828054610b96906116eb565b8015610be35780601f10610bb857610100808354040283529160200191610be3565b820191906000526020600020905b815481529060010190602001808311610bc657829003601f168201915b505050506002830154600384015460069094015492936001600160a01b03918216939116915085565b600460205281600052604060002081815481106104c357600080fd5b600082815260026020526040902080548391839133919083908110610c5d57634e487b7160e01b600052603260045260246000fd5b600091825260209091206004909102015461010090046001600160a01b031614610cbe5760405162461bcd60e51b815260206004820152601260248201527113db9b1e48109d5e595c88105b1b1bddd95960721b6044820152606401610221565b60016000858152600260205260409020805485908110610cee57634e487b7160e01b600052603260045260246000fd5b600091825260209091206004918202015460ff1690811115610d2057634e487b7160e01b600052602160045260246000fd5b14610d615760405162461bcd60e51b815260206004820152601160248201527043616e27742043616e63656c6c206e6f7760781b6044820152606401610221565b600084815260026020526040902080546004919085908110610d9357634e487b7160e01b600052603260045260246000fd5b906000526020600020906004020160000160006101000a81548160ff02191690836004811115610dd357634e487b7160e01b600052602160045260246000fd5b021790555060408051338152602081018690529081018490527fa916c06d382a32a2d52751a0f59721c029227671188c07a99233bf72bd3c679b906060015b60405180910390a150505050565b60016020819052600091825260409091208054918101805460ff90931692610b6a906116eb565b8051825114610e825760405162461bcd60e51b8152602060048201526007602482015266042d8cadccee8d60cb1b6044820152606401610221565b6000548310610ec55760405162461bcd60e51b815260206004820152600f60248201526e125b9d985b1a590817dcddd85c1259608a1b6044820152606401610221565b6040805160a0810182526001808252336020808401919091528284018690526060830185905260808301879052600087815260028252938420805480840182559085529320825160049485029091018054939485949193849260ff1916918490811115610f4257634e487b7160e01b600052602160045260246000fd5b021790555060208281015182546001600160a01b0390911661010002610100600160a81b031990911617825560408301518051610f859260018501920190611149565b5060608201518051610fa191600284019160209091019061119e565b5060809190910151600390910155336000908152600460208181526040832080546001818101835591855291909320845191830201805485949193849260ff199092169190849081111561100557634e487b7160e01b600052602160045260246000fd5b021790555060208281015182546001600160a01b0390911661010002610100600160a81b0319909116178255604083015180516110489260018501920190611149565b506060820151805161106491600284019160209091019061119e565b506080919091015160039091015533600090815260066020526040812080549161108d83611726565b91905055507f92ce6ed4e3dd61f8d9b82803e03053e86f7dcaaa88a5e65c58d36db8227f8d06338484604051610e129392919061152f565b8280546110d1906116eb565b90600052602060002090601f0160209004810192826110f35760008555611139565b82601f1061110c57805160ff1916838001178555611139565b82800160010185558215611139579182015b8281111561113957825182559160200191906001019061111e565b506111459291506111d8565b5090565b828054828255906000526020600020908101928215611139579160200282015b8281111561113957825182546001600160a01b0319166001600160a01b03909116178255602090920191600190910190611169565b828054828255906000526020600020908101928215611139579160200282018281111561113957825182559160200191906001019061111e565b5b8082111561114557600081556001016111d9565b80356001600160a01b038116811461120457600080fd5b919050565b600082601f830112611219578081fd5b8135602061122e611229836116c7565b611696565b80838252828201915082860187848660051b890101111561124d578586fd5b855b8581101561127257611260826111ed565b8452928401929084019060010161124f565b5090979650505050505050565b600082601f83011261128f578081fd5b8135602061129f611229836116c7565b80838252828201915082860187848660051b89010111156112be578586fd5b855b85811015611272578135845292840192908401906001016112c0565b6000602082840312156112ed578081fd5b6112f6826111ed565b9392505050565b6000806040838503121561130f578081fd5b611318836111ed565b946020939093013593505050565b60008060006060848603121561133a578081fd5b833567ffffffffffffffff80821115611351578283fd5b61135d87838801611209565b9450602091508186013581811115611373578384fd5b61137f8882890161127f565b945050604086013581811115611393578384fd5b8601601f810188136113a3578384fd5b8035828111156113b5576113b561174d565b6113c7601f8201601f19168501611696565b925080835288848284010111156113dc578485fd5b8084830185850137820190920192909252509194909350909150565b600060208284031215611409578081fd5b5035919050565b600080600060608486031215611424578283fd5b83359250602084013567ffffffffffffffff80821115611442578384fd5b61144e87838801611209565b93506040860135915080821115611463578283fd5b506114708682870161127f565b9150509250925092565b6000806040838503121561148c578182fd5b50508035926020909101359150565b6000815180845260208085019450808401835b838110156114d35781516001600160a01b0316875295820195908201906001016114ae565b509495945050505050565b6000815180845260208085019450808401835b838110156114d3578151875295820195908201906001016114f1565b6005811061152b57634e487b7160e01b600052602160045260246000fd5b9052565b6001600160a01b03841681526060602082018190526000906115539083018561149b565b828103604084015261156581856114de565b9695505050505050565b600060018060a01b03808916835260c0602084015261159160c084018961149b565b83810360408501526115a381896114de565b9050818716606085015283810360808501526115bf818761149b565b91505082810360a08401526115d481856114de565b9998505050505050505050565b606081016115ef828661150d565b6001600160a01b0393909316602082015260400152919050565b611613818761150d565b6000602060a08184015286518060a0850152825b818110156116435788810183015185820160c001528201611627565b81811115611654578360c083870101525b50601f01601f1916830160c001915061167a905060408301866001600160a01b03169052565b6001600160a01b03939093166060820152608001529392505050565b604051601f8201601f1916810167ffffffffffffffff811182821017156116bf576116bf61174d565b604052919050565b600067ffffffffffffffff8211156116e1576116e161174d565b5060051b60200190565b600181811c908216806116ff57607f821691505b6020821081141561172057634e487b7160e01b600052602260045260246000fd5b50919050565b600060001982141561174657634e487b7160e01b81526011600452602481fd5b5060010190565b634e487b7160e01b600052604160045260246000fdfea2646970667358221220b771952e929542c17793f5a413fb01eb80847adc070bb3f63537fafdcfbd227164736f6c63430008040033",
  "linkReferences": {},
  "deployedLinkReferences": {}
}