{
  "_format": "hh-sol-artifact-1",
  "contractName": "Swapify",
  "sourceName": "contracts/Swapify.sol",
  "abi": [
    {
      "inputs": [],
      "stateMutability": "nonpayable",
      "type": "constructor"
    },
    {
      "anonymous": false,
      "inputs": [
        {
          "indexed": false,
          "internalType": "address",
          "name": "seller",
          "type": "address"
        },
        {
          "indexed": false,
          "internalType": "address[]",
          "name": "swapTokens",
          "type": "address[]"
        },
        {
          "indexed": false,
          "internalType": "uint256[]",
          "name": "swapTokenIds",
          "type": "uint256[]"
        },
        {
          "indexed": false,
          "internalType": "address",
          "name": "buyer",
          "type": "address"
        },
        {
          "indexed": false,
          "internalType": "address[]",
          "name": "offerTokens",
          "type": "address[]"
        },
        {
          "indexed": false,
          "internalType": "uint256[]",
          "name": "offerTokenIds",
          "type": "uint256[]"
        }
      ],
      "name": "OfferAccepted",
      "type": "event"
    },
    {
      "anonymous": false,
      "inputs": [
        {
          "indexed": false,
          "internalType": "address",
          "name": "buyer",
          "type": "address"
        },
        {
          "indexed": false,
          "internalType": "uint256",
          "name": "swapId",
          "type": "uint256"
        },
        {
          "indexed": false,
          "internalType": "uint256",
          "name": "offerId",
          "type": "uint256"
        }
      ],
      "name": "OfferCancelled",
      "type": "event"
    },
    {
      "anonymous": false,
      "inputs": [
        {
          "indexed": false,
          "internalType": "address",
          "name": "buyer",
          "type": "address"
        },
        {
          "indexed": false,
          "internalType": "address[]",
          "name": "tokens",
          "type": "address[]"
        },
        {
          "indexed": false,
          "internalType": "uint256[]",
          "name": "tokenIds",
          "type": "uint256[]"
        }
      ],
      "name": "OfferProposed",
      "type": "event"
    },
    {
      "anonymous": false,
      "inputs": [],
      "name": "OfferRejected",
      "type": "event"
    },
    {
      "anonymous": false,
      "inputs": [
        {
          "indexed": false,
          "internalType": "address",
          "name": "seller",
          "type": "address"
        },
        {
          "indexed": false,
          "internalType": "address[]",
          "name": "tokens",
          "type": "address[]"
        },
        {
          "indexed": false,
          "internalType": "uint256[]",
          "name": "tokenIds",
          "type": "uint256[]"
        }
      ],
      "name": "SwapCreated",
      "type": "event"
    },
    {
      "inputs": [
        {
          "internalType": "uint256",
          "name": "_swapId",
          "type": "uint256"
        },
        {
          "internalType": "uint256",
          "name": "_offerId",
          "type": "uint256"
        }
      ],
      "name": "acceptOffer",
      "outputs": [],
      "stateMutability": "nonpayable",
      "type": "function"
    },
    {
      "inputs": [
        {
          "internalType": "uint256",
          "name": "_swapId",
          "type": "uint256"
        },
        {
          "internalType": "uint256",
          "name": "_offerId",
          "type": "uint256"
        }
      ],
      "name": "cancelOffer",
      "outputs": [],
      "stateMutability": "nonpayable",
      "type": "function"
    },
    {
      "inputs": [
        {
          "internalType": "address[]",
          "name": "_swapTokens",
          "type": "address[]"
        },
        {
          "internalType": "uint256[]",
          "name": "_swapTokenIds",
          "type": "uint256[]"
        },
        {
          "internalType": "string",
          "name": "_description",
          "type": "string"
        }
      ],
      "name": "createSwap",
      "outputs": [],
      "stateMutability": "nonpayable",
      "type": "function"
    },
    {
      "inputs": [
        {
          "internalType": "uint256",
          "name": "_swapId",
          "type": "uint256"
        },
        {
          "internalType": "uint256",
          "name": "_offerId",
          "type": "uint256"
        },
        {
          "internalType": "uint256",
          "name": "_tokenNumber",
          "type": "uint256"
        }
      ],
      "name": "getOfferToken",
      "outputs": [
        {
          "internalType": "address",
          "name": "token",
          "type": "address"
        },
        {
          "internalType": "uint256",
          "name": "tokenId",
          "type": "uint256"
        },
        {
          "internalType": "uint256",
          "name": "tokenNumbers",
          "type": "uint256"
        }
      ],
      "stateMutability": "view",
      "type": "function"
    },
    {
      "inputs": [
        {
          "internalType": "uint256",
          "name": "_swapId",
          "type": "uint256"
        },
        {
          "internalType": "uint256",
          "name": "_tokenNumber",
          "type": "uint256"
        }
      ],
      "name": "getSwapToken",
      "outputs": [
        {
          "internalType": "address",
          "name": "token",
          "type": "address"
        },
        {
          "internalType": "uint256",
          "name": "tokenId",
          "type": "uint256"
        },
        {
          "internalType": "uint256",
          "name": "tokenNumbers",
          "type": "uint256"
        }
      ],
      "stateMutability": "view",
      "type": "function"
    },
    {
      "inputs": [
        {
          "internalType": "uint256",
          "name": "",
          "type": "uint256"
        },
        {
          "internalType": "uint256",
          "name": "",
          "type": "uint256"
        }
      ],
      "name": "offers",
      "outputs": [
        {
          "internalType": "enum Swapify.Status",
          "name": "status",
          "type": "uint8"
        },
        {
          "internalType": "address",
          "name": "buyer",
          "type": "address"
        },
        {
          "internalType": "uint256",
          "name": "swapId",
          "type": "uint256"
        }
      ],
      "stateMutability": "view",
      "type": "function"
    },
    {
      "inputs": [
        {
          "internalType": "uint256",
          "name": "_swapId",
          "type": "uint256"
        },
        {
          "internalType": "address[]",
          "name": "_offerTokens",
          "type": "address[]"
        },
        {
          "internalType": "uint256[]",
          "name": "_offerTokenIds",
          "type": "uint256[]"
        }
      ],
      "name": "proposeOffer",
      "outputs": [],
      "stateMutability": "nonpayable",
      "type": "function"
    },
    {
      "inputs": [],
      "name": "rejectOffer",
      "outputs": [],
      "stateMutability": "nonpayable",
      "type": "function"
    },
    {
      "inputs": [],
      "name": "swapCount",
      "outputs": [
        {
          "internalType": "uint256",
          "name": "",
          "type": "uint256"
        }
      ],
      "stateMutability": "view",
      "type": "function"
    },
    {
      "inputs": [
        {
          "internalType": "uint256",
          "name": "",
          "type": "uint256"
        }
      ],
      "name": "swaps",
      "outputs": [
        {
          "internalType": "enum Swapify.Status",
          "name": "status",
          "type": "uint8"
        },
        {
          "internalType": "string",
          "name": "description",
          "type": "string"
        },
        {
          "internalType": "address",
          "name": "seller",
          "type": "address"
        },
        {
          "internalType": "address",
          "name": "buyer",
          "type": "address"
        },
        {
          "internalType": "uint256",
          "name": "swapId",
          "type": "uint256"
        }
      ],
      "stateMutability": "view",
      "type": "function"
    },
    {
      "inputs": [],
      "name": "updateOffer",
      "outputs": [],
      "stateMutability": "nonpayable",
      "type": "function"
    },
    {
      "inputs": [
        {
          "internalType": "address",
          "name": "",
          "type": "address"
        },
        {
          "internalType": "uint256",
          "name": "",
          "type": "uint256"
        }
      ],
      "name": "userOffers",
      "outputs": [
        {
          "internalType": "enum Swapify.Status",
          "name": "status",
          "type": "uint8"
        },
        {
          "internalType": "address",
          "name": "buyer",
          "type": "address"
        },
        {
          "internalType": "uint256",
          "name": "swapId",
          "type": "uint256"
        }
      ],
      "stateMutability": "view",
      "type": "function"
    },
    {
      "inputs": [
        {
          "internalType": "address",
          "name": "",
          "type": "address"
        }
      ],
      "name": "userOffersCount",
      "outputs": [
        {
          "internalType": "uint256",
          "name": "",
          "type": "uint256"
        }
      ],
      "stateMutability": "view",
      "type": "function"
    },
    {
      "inputs": [
        {
          "internalType": "address",
          "name": "",
          "type": "address"
        }
      ],
      "name": "userSwapCount",
      "outputs": [
        {
          "internalType": "uint256",
          "name": "",
          "type": "uint256"
        }
      ],
      "stateMutability": "view",
      "type": "function"
    },
    {
      "inputs": [
        {
          "internalType": "address",
          "name": "",
          "type": "address"
        },
        {
          "internalType": "uint256",
          "name": "",
          "type": "uint256"
        }
      ],
      "name": "userSwaps",
      "outputs": [
        {
          "internalType": "enum Swapify.Status",
          "name": "status",
          "type": "uint8"
        },
        {
          "internalType": "string",
          "name": "description",
          "type": "string"
        },
        {
          "internalType": "address",
          "name": "seller",
          "type": "address"
        },
        {
          "internalType": "address",
          "name": "buyer",
          "type": "address"
        },
        {
          "internalType": "uint256",
          "name": "swapId",
          "type": "uint256"
        }
      ],
      "stateMutability": "view",
      "type": "function"
    }
  ],
  "bytecode": "0x608060405234801561001057600080fd5b50611a16806100206000396000f3fe608060405234801561001057600080fd5b50600436106100f55760003560e01c806381257bd511610097578063d45557cc11610066578063d45557cc14610222578063efd998ad146100fa578063f09c582914610235578063f5b550361461024857600080fd5b806381257bd5146101c557806387d2d3e6146101d8578063ad6573b9146101fc578063bd5fec651461020f57600080fd5b80632eff0d9e116100d35780632eff0d9e146101425780634d03a9a51461014b578063543aa9fe1461016d5780637dcdb2861461018d57600080fd5b80630cdf763f146100fa578063187e9e68146100fc5780631baff5511461012f575b600080fd5b005b61011c61010a36600461152e565b60066020526000908152604090205481565b6040519081526020015b60405180910390f35b6100fa61013d366004611578565b61025b565b61011c60005481565b61015e6101593660046116cc565b610518565b6040516101269392919061185e565b61011c61017b36600461152e565b60056020526000908152604090205481565b6101a061019b3660046116ed565b610566565b604080516001600160a01b039094168452602084019290925290820152606001610126565b6100fa6101d33660046116cc565b6106a0565b6101eb6101e636600461154f565b610cce565b604051610126959493929190611886565b6101a061020a3660046116cc565b610db7565b61015e61021d36600461154f565b610e5e565b6100fa6102303660046116cc565b610e7a565b6101eb61024336600461164a565b611072565b6100fa610256366004611662565b611099565b815183511461029b5760405162461bcd60e51b8152602060048201526007602482015266042d8cadccee8d60cb1b60448201526064015b60405180910390fd5b600080546040805160e081018252600180825260208083018790523383850152606083018690526080830189905260a0830188905260c0830185905284865281905291909320835181549394938493839160ff19169083600481111561031157634e487b7160e01b600052602160045260246000fd5b0217905550602082810151805161032e9260018501920190611317565b5060408201516002820180546001600160a01b039283166001600160a01b03199182161790915560608401516003840180549190931691161790556080820151805161038491600484019160209091019061139b565b5060a082015180516103a09160058401916020909101906113f0565b5060c09190910151600690910155336000908152600360209081526040822080546001818101835591845291909220835160079092020180548493919291839160ff19169083600481111561040557634e487b7160e01b600052602160045260246000fd5b021790555060208281015180516104229260018501920190611317565b5060408201516002820180546001600160a01b039283166001600160a01b03199182161790915560608401516003840180549190931691161790556080820151805161047891600484019160209091019061139b565b5060a082015180516104949160058401916020909101906113f0565b5060c091909101516006909101556000805490806104b1836119a3565b90915550503360009081526005602052604081208054916104d1836119a3565b91905055507fb51d5b2b6761a67ee39dec4e4fcfd559b7b91ec98ea3a04ff6b76e2653da72da338686604051610509939291906117ac565b60405180910390a15050505050565b6002602052816000526040600020818154811061053457600080fd5b60009182526020909120600490910201805460039091015460ff821693506101009091046001600160a01b0316915083565b60008381526002602052604081208054829182918690811061059857634e487b7160e01b600052603260045260246000fd5b906000526020600020906004020160010184815481106105c857634e487b7160e01b600052603260045260246000fd5b60009182526020808320909101548883526002909152604090912080546001600160a01b039092169450908690811061061157634e487b7160e01b600052603260045260246000fd5b9060005260206000209060040201600201848154811061064157634e487b7160e01b600052603260045260246000fd5b9060005260206000200154915060026000878152602001908152602001600020858154811061068057634e487b7160e01b600052603260045260246000fd5b906000526020600020906004020160020180549050905093509350939050565b60008281526001602052604090206002015482906001600160a01b031633146107015760405162461bcd60e51b815260206004820152601360248201527213db9b1e4814d95b1b195c88105b1b1bddd959606a1b6044820152606401610292565b6001600084815260026020526040902080548490811061073157634e487b7160e01b600052603260045260246000fd5b600091825260209091206004918202015460ff169081111561076357634e487b7160e01b600052602160045260246000fd5b146107a25760405162461bcd60e51b815260206004820152600f60248201526e43616e7420416363657074206e6f7760881b6044820152606401610292565b60008381526001602090815260408083206002908101549252822080546001600160a01b039092169291859081106107ea57634e487b7160e01b600052603260045260246000fd5b600091825260208083206004928302015488845260018252604080852090930180548451818502810185019095528085526101009092046001600160a01b031695509183018282801561086657602002820191906000526020600020905b81546001600160a01b03168152600190910190602001808311610848575b505050505090506000600160008881526020019081526020016000206005018054806020026020016040519081016040528092919081815260200182805480156108cf57602002820191906000526020600020905b8154815260200190600101908083116108bb575b5050505050905060005b82518110156109bf5782818151811061090257634e487b7160e01b600052603260045260246000fd5b60200260200101516001600160a01b03166342842e0e868685858151811061093a57634e487b7160e01b600052603260045260246000fd5b60209081029190910101516040516001600160e01b031960e086901b1681526001600160a01b0393841660048201529290911660248301526044820152606401600060405180830381600087803b15801561099457600080fd5b505af11580156109a8573d6000803e3d6000fd5b5050505080806109b7906119a3565b9150506108d9565b5060008781526002602052604081208054889081106109ee57634e487b7160e01b600052603260045260246000fd5b9060005260206000209060040201600101805480602002602001604051908101604052809291908181526020018280548015610a5357602002820191906000526020600020905b81546001600160a01b03168152600190910190602001808311610a35575b505050505090506000600260008a81526020019081526020016000208881548110610a8e57634e487b7160e01b600052603260045260246000fd5b9060005260206000209060040201600201805480602002602001604051908101604052809291908181526020018280548015610ae957602002820191906000526020600020905b815481526020019060010190808311610ad5575b5050505050905060005b8251811015610bd957828181518110610b1c57634e487b7160e01b600052603260045260246000fd5b60200260200101516001600160a01b03166342842e0e8789858581518110610b5457634e487b7160e01b600052603260045260246000fd5b60209081029190910101516040516001600160e01b031960e086901b1681526001600160a01b0393841660048201529290911660248301526044820152606401600060405180830381600087803b158015610bae57600080fd5b505af1158015610bc2573d6000803e3d6000fd5b505050508080610bd1906119a3565b915050610af3565b5060008981526001602090815260408083208054600360ff199091168117825590810180546001600160a01b0319166001600160a01b038b16179055600290925290912080548a908110610c3d57634e487b7160e01b600052603260045260246000fd5b906000526020600020906004020160000160006101000a81548160ff02191690836004811115610c7d57634e487b7160e01b600052602160045260246000fd5b02179055507fd8e10a064e68deb7801fcabc43361f2537ee211b2366c38ec20f01ab433ee714868585888686604051610cbb969594939291906117ec565b60405180910390a1505050505050505050565b60036020528160005260406000208181548110610cea57600080fd5b60009182526020909120600790910201805460018201805460ff9092169450919250610d1590611968565b80601f0160208091040260200160405190810160405280929190818152602001828054610d4190611968565b8015610d8e5780601f10610d6357610100808354040283529160200191610d8e565b820191906000526020600020905b815481529060010190602001808311610d7157829003601f168201915b505050506002830154600384015460069094015492936001600160a01b03918216939116915085565b600082815260016020526040812060040180548291829185908110610dec57634e487b7160e01b600052603260045260246000fd5b60009182526020808320909101548783526001909152604090912060050180546001600160a01b0390921694509085908110610e3857634e487b7160e01b600052603260045260246000fd5b600091825260208083209091015496825260019052604090206004015492959293505050565b6004602052816000526040600020818154811061053457600080fd5b600082815260026020526040902080548391839133919083908110610eaf57634e487b7160e01b600052603260045260246000fd5b600091825260209091206004909102015461010090046001600160a01b031614610f105760405162461bcd60e51b815260206004820152601260248201527113db9b1e48109d5e595c88105b1b1bddd95960721b6044820152606401610292565b60016000858152600260205260409020805485908110610f4057634e487b7160e01b600052603260045260246000fd5b600091825260209091206004918202015460ff1690811115610f7257634e487b7160e01b600052602160045260246000fd5b14610fb35760405162461bcd60e51b815260206004820152601160248201527043616e27742043616e63656c6c206e6f7760781b6044820152606401610292565b600084815260026020526040902080546004919085908110610fe557634e487b7160e01b600052603260045260246000fd5b906000526020600020906004020160000160006101000a81548160ff0219169083600481111561102557634e487b7160e01b600052602160045260246000fd5b021790555060408051338152602081018690529081018490527fa916c06d382a32a2d52751a0f59721c029227671188c07a99233bf72bd3c679b906060015b60405180910390a150505050565b60016020819052600091825260409091208054918101805460ff90931692610d1590611968565b80518251146110d45760405162461bcd60e51b8152602060048201526007602482015266042d8cadccee8d60cb1b6044820152606401610292565b60005483106111175760405162461bcd60e51b815260206004820152600f60248201526e125b9d985b1a590817dcddd85c1259608a1b6044820152606401610292565b6040805160a0810182526001808252336020808401919091528284018690526060830185905260808301879052600087815260028252938420805480840182559085529320825160049485029091018054939485949193849260ff191691849081111561119457634e487b7160e01b600052602160045260246000fd5b021790555060208281015182546001600160a01b0390911661010002610100600160a81b0319909116178255604083015180516111d7926001850192019061139b565b50606082015180516111f39160028401916020909101906113f0565b5060809190910151600390910155336000908152600460208181526040832080546001818101835591855291909320845191830201805485949193849260ff199092169190849081111561125757634e487b7160e01b600052602160045260246000fd5b021790555060208281015182546001600160a01b0390911661010002610100600160a81b03199091161782556040830151805161129a926001850192019061139b565b50606082015180516112b69160028401916020909101906113f0565b50608091909101516003909101553360009081526006602052604081208054916112df836119a3565b91905055507f92ce6ed4e3dd61f8d9b82803e03053e86f7dcaaa88a5e65c58d36db8227f8d06338484604051611064939291906117ac565b82805461132390611968565b90600052602060002090601f016020900481019282611345576000855561138b565b82601f1061135e57805160ff191683800117855561138b565b8280016001018555821561138b579182015b8281111561138b578251825591602001919060010190611370565b5061139792915061142a565b5090565b82805482825590600052602060002090810192821561138b579160200282015b8281111561138b57825182546001600160a01b0319166001600160a01b039091161782556020909201916001909101906113bb565b82805482825590600052602060002090810192821561138b579160200282018281111561138b578251825591602001919060010190611370565b5b80821115611397576000815560010161142b565b80356001600160a01b038116811461145657600080fd5b919050565b600082601f83011261146b578081fd5b8135602061148061147b83611944565b611913565b80838252828201915082860187848660051b890101111561149f578586fd5b855b858110156114c4576114b28261143f565b845292840192908401906001016114a1565b5090979650505050505050565b600082601f8301126114e1578081fd5b813560206114f161147b83611944565b80838252828201915082860187848660051b8901011115611510578586fd5b855b858110156114c457813584529284019290840190600101611512565b60006020828403121561153f578081fd5b6115488261143f565b9392505050565b60008060408385031215611561578081fd5b61156a8361143f565b946020939093013593505050565b60008060006060848603121561158c578081fd5b833567ffffffffffffffff808211156115a3578283fd5b6115af8783880161145b565b94506020915081860135818111156115c5578384fd5b6115d1888289016114d1565b9450506040860135818111156115e5578384fd5b8601601f810188136115f5578384fd5b803582811115611607576116076119ca565b611619601f8201601f19168501611913565b9250808352888482840101111561162e578485fd5b8084830185850137820190920192909252509194909350909150565b60006020828403121561165b578081fd5b5035919050565b600080600060608486031215611676578283fd5b83359250602084013567ffffffffffffffff80821115611694578384fd5b6116a08783880161145b565b935060408601359150808211156116b5578283fd5b506116c2868287016114d1565b9150509250925092565b600080604083850312156116de578182fd5b50508035926020909101359150565b600080600060608486031215611701578283fd5b505081359360208301359350604090920135919050565b6000815180845260208085019450808401835b838110156117505781516001600160a01b03168752958201959082019060010161172b565b509495945050505050565b6000815180845260208085019450808401835b838110156117505781518752958201959082019060010161176e565b600581106117a857634e487b7160e01b600052602160045260246000fd5b9052565b6001600160a01b03841681526060602082018190526000906117d090830185611718565b82810360408401526117e2818561175b565b9695505050505050565b600060018060a01b03808916835260c0602084015261180e60c0840189611718565b8381036040850152611820818961175b565b90508187166060850152838103608085015261183c8187611718565b91505082810360a0840152611851818561175b565b9998505050505050505050565b6060810161186c828661178a565b6001600160a01b0393909316602082015260400152919050565b611890818761178a565b6000602060a08184015286518060a0850152825b818110156118c05788810183015185820160c0015282016118a4565b818111156118d1578360c083870101525b50601f01601f1916830160c00191506118f7905060408301866001600160a01b03169052565b6001600160a01b03939093166060820152608001529392505050565b604051601f8201601f1916810167ffffffffffffffff8111828210171561193c5761193c6119ca565b604052919050565b600067ffffffffffffffff82111561195e5761195e6119ca565b5060051b60200190565b600181811c9082168061197c57607f821691505b6020821081141561199d57634e487b7160e01b600052602260045260246000fd5b50919050565b60006000198214156119c357634e487b7160e01b81526011600452602481fd5b5060010190565b634e487b7160e01b600052604160045260246000fdfea2646970667358221220ada101a3ebe9c387745b162b810745df25773eec861c797f8c44fe8db51015ee64736f6c63430008040033",
  "linkReferences": {},
  "deployedLinkReferences": {}
}