{
  "_format": "hh-sol-artifact-1",
  "contractName": "Swapify",
  "sourceName": "contracts/Swapify.sol",
  "abi": [
    {
      "anonymous": false,
      "inputs": [
        {
          "indexed": false,
          "internalType": "address",
          "name": "seller",
          "type": "address"
        },
        {
          "indexed": false,
          "internalType": "address[]",
          "name": "swapTokens",
          "type": "address[]"
        },
        {
          "indexed": false,
          "internalType": "uint256[]",
          "name": "swapTokenIds",
          "type": "uint256[]"
        },
        {
          "indexed": false,
          "internalType": "address",
          "name": "buyer",
          "type": "address"
        },
        {
          "indexed": false,
          "internalType": "address[]",
          "name": "offerTokens",
          "type": "address[]"
        },
        {
          "indexed": false,
          "internalType": "uint256[]",
          "name": "offerTokenIds",
          "type": "uint256[]"
        }
      ],
      "name": "OfferAccepted",
      "type": "event"
    },
    {
      "anonymous": false,
      "inputs": [
        {
          "indexed": false,
          "internalType": "address",
          "name": "buyer",
          "type": "address"
        },
        {
          "indexed": false,
          "internalType": "uint256",
          "name": "swapId",
          "type": "uint256"
        },
        {
          "indexed": false,
          "internalType": "uint256",
          "name": "offerId",
          "type": "uint256"
        }
      ],
      "name": "OfferCancelled",
      "type": "event"
    },
    {
      "anonymous": false,
      "inputs": [
        {
          "indexed": false,
          "internalType": "address",
          "name": "buyer",
          "type": "address"
        },
        {
          "indexed": false,
          "internalType": "address[]",
          "name": "tokens",
          "type": "address[]"
        },
        {
          "indexed": false,
          "internalType": "uint256[]",
          "name": "tokenIds",
          "type": "uint256[]"
        }
      ],
      "name": "OfferProposed",
      "type": "event"
    },
    {
      "anonymous": false,
      "inputs": [],
      "name": "OfferRejected",
      "type": "event"
    },
    {
      "anonymous": false,
      "inputs": [
        {
          "indexed": false,
          "internalType": "address",
          "name": "seller",
          "type": "address"
        },
        {
          "indexed": false,
          "internalType": "address[]",
          "name": "tokens",
          "type": "address[]"
        },
        {
          "indexed": false,
          "internalType": "uint256[]",
          "name": "tokenIds",
          "type": "uint256[]"
        }
      ],
      "name": "SwapCreated",
      "type": "event"
    },
    {
      "inputs": [
        {
          "internalType": "uint256",
          "name": "_swapId",
          "type": "uint256"
        },
        {
          "internalType": "uint256",
          "name": "_offerId",
          "type": "uint256"
        }
      ],
      "name": "acceptOffer",
      "outputs": [],
      "stateMutability": "nonpayable",
      "type": "function"
    },
    {
      "inputs": [
        {
          "internalType": "uint256",
          "name": "_swapId",
          "type": "uint256"
        },
        {
          "internalType": "uint256",
          "name": "_offerId",
          "type": "uint256"
        }
      ],
      "name": "cancelOffer",
      "outputs": [],
      "stateMutability": "nonpayable",
      "type": "function"
    },
    {
      "inputs": [
        {
          "internalType": "address[]",
          "name": "_swapTokens",
          "type": "address[]"
        },
        {
          "internalType": "uint256[]",
          "name": "_swapTokenIds",
          "type": "uint256[]"
        },
        {
          "internalType": "string",
          "name": "_description",
          "type": "string"
        }
      ],
      "name": "createSwap",
      "outputs": [],
      "stateMutability": "nonpayable",
      "type": "function"
    },
    {
      "inputs": [
        {
          "internalType": "uint256",
          "name": "_swapId",
          "type": "uint256"
        },
        {
          "internalType": "uint256",
          "name": "_offerId",
          "type": "uint256"
        },
        {
          "internalType": "uint256",
          "name": "_tokenNumber",
          "type": "uint256"
        }
      ],
      "name": "getOfferToken",
      "outputs": [
        {
          "internalType": "address",
          "name": "token",
          "type": "address"
        },
        {
          "internalType": "uint256",
          "name": "tokenId",
          "type": "uint256"
        },
        {
          "internalType": "uint256",
          "name": "tokenNumbers",
          "type": "uint256"
        }
      ],
      "stateMutability": "view",
      "type": "function"
    },
    {
      "inputs": [
        {
          "internalType": "uint256",
          "name": "_swapId",
          "type": "uint256"
        },
        {
          "internalType": "uint256",
          "name": "_tokenNumber",
          "type": "uint256"
        }
      ],
      "name": "getSwapToken",
      "outputs": [
        {
          "internalType": "address",
          "name": "token",
          "type": "address"
        },
        {
          "internalType": "uint256",
          "name": "tokenId",
          "type": "uint256"
        },
        {
          "internalType": "uint256",
          "name": "tokenNumbers",
          "type": "uint256"
        }
      ],
      "stateMutability": "view",
      "type": "function"
    },
    {
      "inputs": [
        {
          "internalType": "uint256",
          "name": "",
          "type": "uint256"
        }
      ],
      "name": "offerExists",
      "outputs": [
        {
          "internalType": "bool",
          "name": "",
          "type": "bool"
        }
      ],
      "stateMutability": "view",
      "type": "function"
    },
    {
      "inputs": [
        {
          "internalType": "uint256",
          "name": "",
          "type": "uint256"
        },
        {
          "internalType": "uint256",
          "name": "",
          "type": "uint256"
        }
      ],
      "name": "offers",
      "outputs": [
        {
          "internalType": "enum Swapify.Status",
          "name": "status",
          "type": "uint8"
        },
        {
          "internalType": "address",
          "name": "buyer",
          "type": "address"
        },
        {
          "internalType": "uint256",
          "name": "swapId",
          "type": "uint256"
        }
      ],
      "stateMutability": "view",
      "type": "function"
    },
    {
      "inputs": [
        {
          "internalType": "uint256",
          "name": "_swapId",
          "type": "uint256"
        },
        {
          "internalType": "address[]",
          "name": "_offerTokens",
          "type": "address[]"
        },
        {
          "internalType": "uint256[]",
          "name": "_offerTokenIds",
          "type": "uint256[]"
        }
      ],
      "name": "proposeOffer",
      "outputs": [],
      "stateMutability": "nonpayable",
      "type": "function"
    },
    {
      "inputs": [],
      "name": "swapCount",
      "outputs": [
        {
          "internalType": "uint256",
          "name": "",
          "type": "uint256"
        }
      ],
      "stateMutability": "view",
      "type": "function"
    },
    {
      "inputs": [
        {
          "internalType": "uint256",
          "name": "",
          "type": "uint256"
        }
      ],
      "name": "swaps",
      "outputs": [
        {
          "internalType": "enum Swapify.Status",
          "name": "status",
          "type": "uint8"
        },
        {
          "internalType": "string",
          "name": "description",
          "type": "string"
        },
        {
          "internalType": "address",
          "name": "seller",
          "type": "address"
        },
        {
          "internalType": "address",
          "name": "buyer",
          "type": "address"
        },
        {
          "internalType": "uint256",
          "name": "swapId",
          "type": "uint256"
        }
      ],
      "stateMutability": "view",
      "type": "function"
    },
    {
      "inputs": [
        {
          "internalType": "address",
          "name": "",
          "type": "address"
        },
        {
          "internalType": "uint256",
          "name": "",
          "type": "uint256"
        }
      ],
      "name": "userOffers",
      "outputs": [
        {
          "internalType": "enum Swapify.Status",
          "name": "status",
          "type": "uint8"
        },
        {
          "internalType": "address",
          "name": "buyer",
          "type": "address"
        },
        {
          "internalType": "uint256",
          "name": "swapId",
          "type": "uint256"
        }
      ],
      "stateMutability": "view",
      "type": "function"
    },
    {
      "inputs": [
        {
          "internalType": "address",
          "name": "",
          "type": "address"
        }
      ],
      "name": "userOffersCount",
      "outputs": [
        {
          "internalType": "uint256",
          "name": "",
          "type": "uint256"
        }
      ],
      "stateMutability": "view",
      "type": "function"
    },
    {
      "inputs": [
        {
          "internalType": "address",
          "name": "",
          "type": "address"
        }
      ],
      "name": "userSwapCount",
      "outputs": [
        {
          "internalType": "uint256",
          "name": "",
          "type": "uint256"
        }
      ],
      "stateMutability": "view",
      "type": "function"
    },
    {
      "inputs": [
        {
          "internalType": "address",
          "name": "",
          "type": "address"
        },
        {
          "internalType": "uint256",
          "name": "",
          "type": "uint256"
        }
      ],
      "name": "userSwaps",
      "outputs": [
        {
          "internalType": "enum Swapify.Status",
          "name": "status",
          "type": "uint8"
        },
        {
          "internalType": "string",
          "name": "description",
          "type": "string"
        },
        {
          "internalType": "address",
          "name": "seller",
          "type": "address"
        },
        {
          "internalType": "address",
          "name": "buyer",
          "type": "address"
        },
        {
          "internalType": "uint256",
          "name": "swapId",
          "type": "uint256"
        }
      ],
      "stateMutability": "view",
      "type": "function"
    }
  ],
  "bytecode": "0x608060405234801561001057600080fd5b50611a19806100206000396000f3fe608060405234801561001057600080fd5b50600436106100ea5760003560e01c806387d2d3e61161008c578063bd5fec6511610066578063bd5fec6514610237578063d45557cc1461024a578063f09c58291461025d578063f5b550361461027057600080fd5b806387d2d3e6146101cd578063ad6573b9146101f1578063b5c835921461020457600080fd5b80634d03a9a5116100c85780634d03a9a514610140578063543aa9fe146101625780637dcdb2861461018257806381257bd5146101ba57600080fd5b8063187e9e68146100ef5780631baff551146101225780632eff0d9e14610137575b600080fd5b61010f6100fd366004611531565b60066020526000908152604090205481565b6040519081526020015b60405180910390f35b61013561013036600461157b565b610283565b005b61010f60005481565b61015361014e3660046116cf565b610543565b60405161011993929190611861565b61010f610170366004611531565b60056020526000908152604090205481565b6101956101903660046116f0565b610591565b604080516001600160a01b039094168452602084019290925290820152606001610119565b6101356101c83660046116cf565b6106cb565b6101e06101db366004611552565b610cfa565b604051610119959493929190611889565b6101956101ff3660046116cf565b610de3565b61022761021236600461164d565b60076020526000908152604090205460ff1681565b6040519015158152602001610119565b610153610245366004611552565b610e8a565b6101356102583660046116cf565b610ea6565b6101e061026b36600461164d565b61109e565b61013561027e366004611665565b6110c5565b81518351146102c35760405162461bcd60e51b8152602060048201526007602482015266042d8cadccee8d60cb1b60448201526064015b60405180910390fd5b600080546040805160e08101825260018152602080820186905233828401819052606083018690526080830189905260a0830188905260c0830185905285526005905290832080549293919291610319836119a6565b90915550506000828152600160208190526040909120825181548493839160ff19169083600481111561035c57634e487b7160e01b600052602160045260246000fd5b02179055506020828101518051610379926001850192019061131a565b5060408201516002820180546001600160a01b039283166001600160a01b0319918216179091556060840151600384018054919093169116179055608082015180516103cf91600484019160209091019061139e565b5060a082015180516103eb9160058401916020909101906113f3565b5060c09190910151600690910155336000908152600360209081526040822080546001818101835591845291909220835160079092020180548493919291839160ff19169083600481111561045057634e487b7160e01b600052602160045260246000fd5b0217905550602082810151805161046d926001850192019061131a565b5060408201516002820180546001600160a01b039283166001600160a01b0319918216179091556060840151600384018054919093169116179055608082015180516104c391600484019160209091019061139e565b5060a082015180516104df9160058401916020909101906113f3565b5060c091909101516006909101556000805490806104fc836119a6565b91905055507fb51d5b2b6761a67ee39dec4e4fcfd559b7b91ec98ea3a04ff6b76e2653da72da338686604051610534939291906117af565b60405180910390a15050505050565b6002602052816000526040600020818154811061055f57600080fd5b60009182526020909120600490910201805460039091015460ff821693506101009091046001600160a01b0316915083565b6000838152600260205260408120805482918291869081106105c357634e487b7160e01b600052603260045260246000fd5b906000526020600020906004020160010184815481106105f357634e487b7160e01b600052603260045260246000fd5b60009182526020808320909101548883526002909152604090912080546001600160a01b039092169450908690811061063c57634e487b7160e01b600052603260045260246000fd5b9060005260206000209060040201600201848154811061066c57634e487b7160e01b600052603260045260246000fd5b906000526020600020015491506002600087815260200190815260200160002085815481106106ab57634e487b7160e01b600052603260045260246000fd5b906000526020600020906004020160020180549050905093509350939050565b60008281526001602052604090206002015482906001600160a01b0316331461072c5760405162461bcd60e51b815260206004820152601360248201527213db9b1e4814d95b1b195c88105b1b1bddd959606a1b60448201526064016102ba565b6001600084815260026020526040902080548490811061075c57634e487b7160e01b600052603260045260246000fd5b600091825260209091206004918202015460ff169081111561078e57634e487b7160e01b600052602160045260246000fd5b146107ce5760405162461bcd60e51b815260206004820152601060248201526f43616e277420416363657074206e6f7760801b60448201526064016102ba565b60008381526001602090815260408083206002908101549252822080546001600160a01b0390921692918590811061081657634e487b7160e01b600052603260045260246000fd5b600091825260208083206004928302015488845260018252604080852090930180548451818502810185019095528085526101009092046001600160a01b031695509183018282801561089257602002820191906000526020600020905b81546001600160a01b03168152600190910190602001808311610874575b505050505090506000600160008881526020019081526020016000206005018054806020026020016040519081016040528092919081815260200182805480156108fb57602002820191906000526020600020905b8154815260200190600101908083116108e7575b5050505050905060005b82518110156109eb5782818151811061092e57634e487b7160e01b600052603260045260246000fd5b60200260200101516001600160a01b03166342842e0e868685858151811061096657634e487b7160e01b600052603260045260246000fd5b60209081029190910101516040516001600160e01b031960e086901b1681526001600160a01b0393841660048201529290911660248301526044820152606401600060405180830381600087803b1580156109c057600080fd5b505af11580156109d4573d6000803e3d6000fd5b5050505080806109e3906119a6565b915050610905565b506000878152600260205260408120805488908110610a1a57634e487b7160e01b600052603260045260246000fd5b9060005260206000209060040201600101805480602002602001604051908101604052809291908181526020018280548015610a7f57602002820191906000526020600020905b81546001600160a01b03168152600190910190602001808311610a61575b505050505090506000600260008a81526020019081526020016000208881548110610aba57634e487b7160e01b600052603260045260246000fd5b9060005260206000209060040201600201805480602002602001604051908101604052809291908181526020018280548015610b1557602002820191906000526020600020905b815481526020019060010190808311610b01575b5050505050905060005b8251811015610c0557828181518110610b4857634e487b7160e01b600052603260045260246000fd5b60200260200101516001600160a01b03166342842e0e8789858581518110610b8057634e487b7160e01b600052603260045260246000fd5b60209081029190910101516040516001600160e01b031960e086901b1681526001600160a01b0393841660048201529290911660248301526044820152606401600060405180830381600087803b158015610bda57600080fd5b505af1158015610bee573d6000803e3d6000fd5b505050508080610bfd906119a6565b915050610b1f565b5060008981526001602090815260408083208054600360ff199091168117825590810180546001600160a01b0319166001600160a01b038b16179055600290925290912080548a908110610c6957634e487b7160e01b600052603260045260246000fd5b906000526020600020906004020160000160006101000a81548160ff02191690836004811115610ca957634e487b7160e01b600052602160045260246000fd5b02179055507fd8e10a064e68deb7801fcabc43361f2537ee211b2366c38ec20f01ab433ee714868585888686604051610ce7969594939291906117ef565b60405180910390a1505050505050505050565b60036020528160005260406000208181548110610d1657600080fd5b60009182526020909120600790910201805460018201805460ff9092169450919250610d419061196b565b80601f0160208091040260200160405190810160405280929190818152602001828054610d6d9061196b565b8015610dba5780601f10610d8f57610100808354040283529160200191610dba565b820191906000526020600020905b815481529060010190602001808311610d9d57829003601f168201915b505050506002830154600384015460069094015492936001600160a01b03918216939116915085565b600082815260016020526040812060040180548291829185908110610e1857634e487b7160e01b600052603260045260246000fd5b60009182526020808320909101548783526001909152604090912060050180546001600160a01b0390921694509085908110610e6457634e487b7160e01b600052603260045260246000fd5b600091825260208083209091015496825260019052604090206004015492959293505050565b6004602052816000526040600020818154811061055f57600080fd5b600082815260026020526040902080548391839133919083908110610edb57634e487b7160e01b600052603260045260246000fd5b600091825260209091206004909102015461010090046001600160a01b031614610f3c5760405162461bcd60e51b815260206004820152601260248201527113db9b1e48109d5e595c88105b1b1bddd95960721b60448201526064016102ba565b60016000858152600260205260409020805485908110610f6c57634e487b7160e01b600052603260045260246000fd5b600091825260209091206004918202015460ff1690811115610f9e57634e487b7160e01b600052602160045260246000fd5b14610fdf5760405162461bcd60e51b815260206004820152601160248201527043616e27742043616e63656c6c206e6f7760781b60448201526064016102ba565b60008481526002602052604090208054600491908590811061101157634e487b7160e01b600052603260045260246000fd5b906000526020600020906004020160000160006101000a81548160ff0219169083600481111561105157634e487b7160e01b600052602160045260246000fd5b021790555060408051338152602081018690529081018490527fa916c06d382a32a2d52751a0f59721c029227671188c07a99233bf72bd3c679b906060015b60405180910390a150505050565b60016020819052600091825260409091208054918101805460ff90931692610d419061196b565b80518251146111005760405162461bcd60e51b8152602060048201526007602482015266042d8cadccee8d60cb1b60448201526064016102ba565b6040805160a0810182526001808252336020808401919091528284018690526060830185905260808301879052600087815260028252938420805480840182559085529320825160049485029091018054939485949193849260ff191691849081111561117d57634e487b7160e01b600052602160045260246000fd5b021790555060208281015182546001600160a01b0390911661010002610100600160a81b0319909116178255604083015180516111c0926001850192019061139e565b50606082015180516111dc9160028401916020909101906113f3565b5060809190910151600390910155336000908152600460208181526040832080546001818101835591855291909320845191830201805485949193849260ff199092169190849081111561124057634e487b7160e01b600052602160045260246000fd5b021790555060208281015182546001600160a01b0390911661010002610100600160a81b031990911617825560408301518051611283926001850192019061139e565b506060820151805161129f9160028401916020909101906113f3565b50608091909101516003909101553360009081526006602052604081208054916112c8836119a6565b909155505060008481526007602052604090819020805460ff19166001179055517f92ce6ed4e3dd61f8d9b82803e03053e86f7dcaaa88a5e65c58d36db8227f8d0690611090903390869086906117af565b8280546113269061196b565b90600052602060002090601f016020900481019282611348576000855561138e565b82601f1061136157805160ff191683800117855561138e565b8280016001018555821561138e579182015b8281111561138e578251825591602001919060010190611373565b5061139a92915061142d565b5090565b82805482825590600052602060002090810192821561138e579160200282015b8281111561138e57825182546001600160a01b0319166001600160a01b039091161782556020909201916001909101906113be565b82805482825590600052602060002090810192821561138e579160200282018281111561138e578251825591602001919060010190611373565b5b8082111561139a576000815560010161142e565b80356001600160a01b038116811461145957600080fd5b919050565b600082601f83011261146e578081fd5b8135602061148361147e83611947565b611916565b80838252828201915082860187848660051b89010111156114a2578586fd5b855b858110156114c7576114b582611442565b845292840192908401906001016114a4565b5090979650505050505050565b600082601f8301126114e4578081fd5b813560206114f461147e83611947565b80838252828201915082860187848660051b8901011115611513578586fd5b855b858110156114c757813584529284019290840190600101611515565b600060208284031215611542578081fd5b61154b82611442565b9392505050565b60008060408385031215611564578081fd5b61156d83611442565b946020939093013593505050565b60008060006060848603121561158f578081fd5b833567ffffffffffffffff808211156115a6578283fd5b6115b28783880161145e565b94506020915081860135818111156115c8578384fd5b6115d4888289016114d4565b9450506040860135818111156115e8578384fd5b8601601f810188136115f8578384fd5b80358281111561160a5761160a6119cd565b61161c601f8201601f19168501611916565b92508083528884828401011115611631578485fd5b8084830185850137820190920192909252509194909350909150565b60006020828403121561165e578081fd5b5035919050565b600080600060608486031215611679578283fd5b83359250602084013567ffffffffffffffff80821115611697578384fd5b6116a38783880161145e565b935060408601359150808211156116b8578283fd5b506116c5868287016114d4565b9150509250925092565b600080604083850312156116e1578182fd5b50508035926020909101359150565b600080600060608486031215611704578283fd5b505081359360208301359350604090920135919050565b6000815180845260208085019450808401835b838110156117535781516001600160a01b03168752958201959082019060010161172e565b509495945050505050565b6000815180845260208085019450808401835b8381101561175357815187529582019590820190600101611771565b600581106117ab57634e487b7160e01b600052602160045260246000fd5b9052565b6001600160a01b03841681526060602082018190526000906117d39083018561171b565b82810360408401526117e5818561175e565b9695505050505050565b600060018060a01b03808916835260c0602084015261181160c084018961171b565b8381036040850152611823818961175e565b90508187166060850152838103608085015261183f818761171b565b91505082810360a0840152611854818561175e565b9998505050505050505050565b6060810161186f828661178d565b6001600160a01b0393909316602082015260400152919050565b611893818761178d565b6000602060a08184015286518060a0850152825b818110156118c35788810183015185820160c0015282016118a7565b818111156118d4578360c083870101525b50601f01601f1916830160c00191506118fa905060408301866001600160a01b03169052565b6001600160a01b03939093166060820152608001529392505050565b604051601f8201601f1916810167ffffffffffffffff8111828210171561193f5761193f6119cd565b604052919050565b600067ffffffffffffffff821115611961576119616119cd565b5060051b60200190565b600181811c9082168061197f57607f821691505b602082108114156119a057634e487b7160e01b600052602260045260246000fd5b50919050565b60006000198214156119c657634e487b7160e01b81526011600452602481fd5b5060010190565b634e487b7160e01b600052604160045260246000fdfea2646970667358221220b801d383a51003237d746fec24dde6b1fe7d422aa939b30baa732bc28d97607364736f6c63430008040033",
  "linkReferences": {},
  "deployedLinkReferences": {}
}