{
  "_format": "hh-sol-artifact-1",
  "contractName": "Contract",
  "sourceName": "contracts/Contract.sol",
  "abi": [
    {
      "inputs": [],
      "stateMutability": "nonpayable",
      "type": "constructor"
    },
    {
      "inputs": [],
      "name": "balance",
      "outputs": [
        {
          "internalType": "uint256",
          "name": "",
          "type": "uint256"
        }
      ],
      "stateMutability": "view",
      "type": "function"
    },
    {
      "inputs": [
        {
          "internalType": "uint256",
          "name": "amount",
          "type": "uint256"
        }
      ],
      "name": "increase_balance",
      "outputs": [],
      "stateMutability": "nonpayable",
      "type": "function"
    }
  ],
  "bytecode": "0x608060405234801561001057600080fd5b5060e98061001f6000396000f3fe6080604052348015600f57600080fd5b506004361060325760003560e01c806363ce0546146037578063b69ef8a8146048575b600080fd5b604660423660046079565b6062565b005b605060005481565b60405190815260200160405180910390f35b80600080828254607191906090565b909155505050565b6000602082840312156089578081fd5b5035919050565b6000821982111560ae57634e487b7160e01b81526011600452602481fd5b50019056fea2646970667358221220050731b4c2517399dc9e425fd4ce9c130e77f5d4fb15bb187c865aeadac5b23064736f6c63430008040033",
  "linkReferences": {},
  "deployedLinkReferences": {}
}