{
  "_format": "hh-sol-artifact-1",
  "contractName": "Swapify20",
  "sourceName": "contracts/Swapify20.sol",
  "abi": [
    {
      "anonymous": false,
      "inputs": [
        {
          "indexed": false,
          "internalType": "address",
          "name": "seller",
          "type": "address"
        },
        {
          "indexed": false,
          "internalType": "address[]",
          "name": "swapTokens",
          "type": "address[]"
        },
        {
          "indexed": false,
          "internalType": "uint256[]",
          "name": "swapTokenIds",
          "type": "uint256[]"
        },
        {
          "indexed": false,
          "internalType": "address",
          "name": "buyer",
          "type": "address"
        },
        {
          "indexed": false,
          "internalType": "address[]",
          "name": "offerTokens",
          "type": "address[]"
        },
        {
          "indexed": false,
          "internalType": "uint256[]",
          "name": "offerTokenIds",
          "type": "uint256[]"
        },
        {
          "indexed": false,
          "internalType": "address[]",
          "name": "offerERC20",
          "type": "address[]"
        },
        {
          "indexed": false,
          "internalType": "uint256[]",
          "name": "amounts",
          "type": "uint256[]"
        }
      ],
      "name": "OfferAccepted",
      "type": "event"
    },
    {
      "anonymous": false,
      "inputs": [
        {
          "indexed": false,
          "internalType": "address",
          "name": "buyer",
          "type": "address"
        },
        {
          "indexed": false,
          "internalType": "uint256",
          "name": "swapId",
          "type": "uint256"
        },
        {
          "indexed": false,
          "internalType": "uint256",
          "name": "offerId",
          "type": "uint256"
        }
      ],
      "name": "OfferCancelled",
      "type": "event"
    },
    {
      "anonymous": false,
      "inputs": [
        {
          "indexed": false,
          "internalType": "address",
          "name": "buyer",
          "type": "address"
        },
        {
          "indexed": false,
          "internalType": "address[]",
          "name": "tokens",
          "type": "address[]"
        },
        {
          "indexed": false,
          "internalType": "uint256[]",
          "name": "tokenIds",
          "type": "uint256[]"
        },
        {
          "indexed": false,
          "internalType": "address[]",
          "name": "offerERC20",
          "type": "address[]"
        },
        {
          "indexed": false,
          "internalType": "uint256[]",
          "name": "amounts",
          "type": "uint256[]"
        }
      ],
      "name": "OfferProposed",
      "type": "event"
    },
    {
      "anonymous": false,
      "inputs": [],
      "name": "OfferRejected",
      "type": "event"
    },
    {
      "anonymous": false,
      "inputs": [
        {
          "indexed": false,
          "internalType": "address",
          "name": "seller",
          "type": "address"
        },
        {
          "indexed": false,
          "internalType": "address[]",
          "name": "tokens",
          "type": "address[]"
        },
        {
          "indexed": false,
          "internalType": "uint256[]",
          "name": "tokenIds",
          "type": "uint256[]"
        }
      ],
      "name": "SwapCreated",
      "type": "event"
    },
    {
      "inputs": [
        {
          "internalType": "uint256",
          "name": "_swapId",
          "type": "uint256"
        },
        {
          "internalType": "uint256",
          "name": "_offerId",
          "type": "uint256"
        }
      ],
      "name": "acceptOffer",
      "outputs": [],
      "stateMutability": "nonpayable",
      "type": "function"
    },
    {
      "inputs": [
        {
          "internalType": "uint256",
          "name": "_swapId",
          "type": "uint256"
        },
        {
          "internalType": "uint256",
          "name": "_offerId",
          "type": "uint256"
        }
      ],
      "name": "cancelOffer",
      "outputs": [],
      "stateMutability": "nonpayable",
      "type": "function"
    },
    {
      "inputs": [
        {
          "internalType": "address[]",
          "name": "_swapTokens",
          "type": "address[]"
        },
        {
          "internalType": "uint256[]",
          "name": "_swapTokenIds",
          "type": "uint256[]"
        },
        {
          "internalType": "string",
          "name": "_description",
          "type": "string"
        }
      ],
      "name": "createSwap",
      "outputs": [],
      "stateMutability": "nonpayable",
      "type": "function"
    },
    {
      "inputs": [
        {
          "internalType": "uint256",
          "name": "",
          "type": "uint256"
        },
        {
          "internalType": "uint256",
          "name": "",
          "type": "uint256"
        }
      ],
      "name": "offers",
      "outputs": [
        {
          "internalType": "enum Swapify20.Status",
          "name": "status",
          "type": "uint8"
        },
        {
          "internalType": "address",
          "name": "buyer",
          "type": "address"
        },
        {
          "internalType": "uint256",
          "name": "swapId",
          "type": "uint256"
        }
      ],
      "stateMutability": "view",
      "type": "function"
    },
    {
      "inputs": [
        {
          "internalType": "uint256",
          "name": "_swapId",
          "type": "uint256"
        },
        {
          "internalType": "address[]",
          "name": "_offerTokens",
          "type": "address[]"
        },
        {
          "internalType": "uint256[]",
          "name": "_offerTokenIds",
          "type": "uint256[]"
        },
        {
          "internalType": "address[]",
          "name": "_ERC20s",
          "type": "address[]"
        },
        {
          "internalType": "uint256[]",
          "name": "_amounts",
          "type": "uint256[]"
        }
      ],
      "name": "proposeOffer",
      "outputs": [],
      "stateMutability": "nonpayable",
      "type": "function"
    },
    {
      "inputs": [],
      "name": "swapCount",
      "outputs": [
        {
          "internalType": "uint256",
          "name": "",
          "type": "uint256"
        }
      ],
      "stateMutability": "view",
      "type": "function"
    },
    {
      "inputs": [
        {
          "internalType": "uint256",
          "name": "",
          "type": "uint256"
        }
      ],
      "name": "swaps",
      "outputs": [
        {
          "internalType": "enum Swapify20.Status",
          "name": "status",
          "type": "uint8"
        },
        {
          "internalType": "string",
          "name": "description",
          "type": "string"
        },
        {
          "internalType": "address",
          "name": "seller",
          "type": "address"
        },
        {
          "internalType": "address",
          "name": "buyer",
          "type": "address"
        },
        {
          "internalType": "uint256",
          "name": "swapId",
          "type": "uint256"
        }
      ],
      "stateMutability": "view",
      "type": "function"
    },
    {
      "inputs": [
        {
          "internalType": "address",
          "name": "",
          "type": "address"
        },
        {
          "internalType": "uint256",
          "name": "",
          "type": "uint256"
        }
      ],
      "name": "userOffers",
      "outputs": [
        {
          "internalType": "enum Swapify20.Status",
          "name": "status",
          "type": "uint8"
        },
        {
          "internalType": "address",
          "name": "buyer",
          "type": "address"
        },
        {
          "internalType": "uint256",
          "name": "swapId",
          "type": "uint256"
        }
      ],
      "stateMutability": "view",
      "type": "function"
    },
    {
      "inputs": [
        {
          "internalType": "address",
          "name": "",
          "type": "address"
        }
      ],
      "name": "userOffersCount",
      "outputs": [
        {
          "internalType": "uint256",
          "name": "",
          "type": "uint256"
        }
      ],
      "stateMutability": "view",
      "type": "function"
    },
    {
      "inputs": [
        {
          "internalType": "address",
          "name": "",
          "type": "address"
        }
      ],
      "name": "userSwapCount",
      "outputs": [
        {
          "internalType": "uint256",
          "name": "",
          "type": "uint256"
        }
      ],
      "stateMutability": "view",
      "type": "function"
    },
    {
      "inputs": [
        {
          "internalType": "address",
          "name": "",
          "type": "address"
        },
        {
          "internalType": "uint256",
          "name": "",
          "type": "uint256"
        }
      ],
      "name": "userSwaps",
      "outputs": [
        {
          "internalType": "enum Swapify20.Status",
          "name": "status",
          "type": "uint8"
        },
        {
          "internalType": "string",
          "name": "description",
          "type": "string"
        },
        {
          "internalType": "address",
          "name": "seller",
          "type": "address"
        },
        {
          "internalType": "address",
          "name": "buyer",
          "type": "address"
        },
        {
          "internalType": "uint256",
          "name": "swapId",
          "type": "uint256"
        }
      ],
      "stateMutability": "view",
      "type": "function"
    }
  ],
  "bytecode": "0x608060405234801561001057600080fd5b50611bda806100206000396000f3fe608060405234801561001057600080fd5b50600436106100a95760003560e01c8063543aa9fe11610071578063543aa9fe1461013457806381257bd51461015457806387d2d3e614610167578063bd5fec651461018b578063d45557cc1461019e578063f09c5829146101b157600080fd5b8063187e9e68146100ae5780631baff551146100e15780632eff0d9e146100f657806348e580b1146100ff5780634d03a9a514610112575b600080fd5b6100ce6100bc36600461161c565b60066020526000908152604090205481565b6040519081526020015b60405180910390f35b6100f46100ef366004611666565b6101c4565b005b6100ce60005481565b6100f461010d366004611770565b6104b9565b610125610120366004611822565b610818565b6040516100d893929190611a22565b6100ce61014236600461161c565b60056020526000908152604090205481565b6100f4610162366004611822565b610866565b61017a61017536600461163d565b6110e9565b6040516100d8959493929190611a4a565b61012561019936600461163d565b6111d2565b6100f46101ac366004611822565b6111ee565b61017a6101bf366004611758565b6113de565b81518351146102045760405162461bcd60e51b8152602060048201526007602482015266042d8cadccee8d60cb1b60448201526064015b60405180910390fd5b825161023c5760405162461bcd60e51b8152602060048201526007602482015266060d8cadccee8d60cb1b60448201526064016101fb565b600080546040805160e081018252600180825260208083018790523383850152606083018690526080830189905260a0830188905260c0830185905284865281905291909320835181549394938493839160ff1916908360048111156102b257634e487b7160e01b600052602160045260246000fd5b021790555060208281015180516102cf9260018501920190611405565b5060408201516002820180546001600160a01b039283166001600160a01b031991821617909155606084015160038401805491909316911617905560808201518051610325916004840191602090910190611489565b5060a082015180516103419160058401916020909101906114de565b5060c09190910151600690910155336000908152600360209081526040822080546001818101835591845291909220835160079092020180548493919291839160ff1916908360048111156103a657634e487b7160e01b600052602160045260246000fd5b021790555060208281015180516103c39260018501920190611405565b5060408201516002820180546001600160a01b039283166001600160a01b031991821617909155606084015160038401805491909316911617905560808201518051610419916004840191602090910190611489565b5060a082015180516104359160058401916020909101906114de565b5060c0919091015160069091015560008054908061045283611b67565b909155505033600090815260056020526040812080549161047283611b67565b91905055507fb51d5b2b6761a67ee39dec4e4fcfd559b7b91ec98ea3a04ff6b76e2653da72da3386866040516104aa939291906118d7565b60405180910390a15050505050565b82518451146104fb5760405162461bcd60e51b815260206004820152600e60248201526d216c656e67746820746f6b656e7360901b60448201526064016101fb565b805182511461053c5760405162461bcd60e51b815260206004820152600d60248201526c0216c656e67746820455243323609c1b60448201526064016101fb565b835115158061054b5750815115155b6105835760405162461bcd60e51b815260206004820152600960248201526830206c656e6774687360b81b60448201526064016101fb565b6040805160e08101825260018152336020808301829052828401889052606083018790526080830186905260a0830185905260c08301899052600091825260069052918220805491926105d583611b67565b90915550506000868152600260209081526040822080546001818101835591845291909220835160069092020180548493919291839160ff19169083600481111561063057634e487b7160e01b600052602160045260246000fd5b021790555060208281015182546001600160a01b0390911661010002610100600160a81b0319909116178255604083015180516106739260018501920190611489565b506060820151805161068f9160028401916020909101906114de565b50608082015180516106ab916003840191602090910190611489565b5060a082015180516106c79160048401916020909101906114de565b5060c091909101516005909101553360009081526004602081815260408320805460018181018355918552919093208451600690920201805485949193849260ff199092169190849081111561072d57634e487b7160e01b600052602160045260246000fd5b021790555060208281015182546001600160a01b0390911661010002610100600160a81b0319909116178255604083015180516107709260018501920190611489565b506060820151805161078c9160028401916020909101906114de565b50608082015180516107a8916003840191602090910190611489565b5060a082015180516107c49160048401916020909101906114de565b5060c0820151816005015550507f974ba4ff3e6e52655e02f8ac5b112b616725041df60b57f55bda106863adbb0233868686866040516108089594939291906119b8565b60405180910390a1505050505050565b6002602052816000526040600020818154811061083457600080fd5b60009182526020909120600690910201805460059091015460ff821693506101009091046001600160a01b0316915083565b60008281526001602052604090206002015482906001600160a01b031633146108c75760405162461bcd60e51b815260206004820152601360248201527213db9b1e4814d95b1b195c88105b1b1bddd959606a1b60448201526064016101fb565b600160008481526002602052604090208054849081106108f757634e487b7160e01b600052603260045260246000fd5b600091825260209091206006909102015460ff16600481111561092a57634e487b7160e01b600052602160045260246000fd5b1461096a5760405162461bcd60e51b815260206004820152601060248201526f43616e277420416363657074206e6f7760801b60448201526064016101fb565b60008381526001602090815260408083206002908101549252822080546001600160a01b039092169291859081106109b257634e487b7160e01b600052603260045260246000fd5b600091825260208083206006929092029091015487835260018252604080842060040180548251818602810186019093528083526101009093046001600160a01b031695509092909190830182828015610a3557602002820191906000526020600020905b81546001600160a01b03168152600190910190602001808311610a17575b50505050509050600060016000888152602001908152602001600020600501805480602002602001604051908101604052809291908181526020018280548015610a9e57602002820191906000526020600020905b815481526020019060010190808311610a8a575b5050505050905060005b8251811015610b8e57828181518110610ad157634e487b7160e01b600052603260045260246000fd5b60200260200101516001600160a01b03166342842e0e8686858581518110610b0957634e487b7160e01b600052603260045260246000fd5b60209081029190910101516040516001600160e01b031960e086901b1681526001600160a01b0393841660048201529290911660248301526044820152606401600060405180830381600087803b158015610b6357600080fd5b505af1158015610b77573d6000803e3d6000fd5b505050508080610b8690611b67565b915050610aa8565b506000878152600260205260408120805488908110610bbd57634e487b7160e01b600052603260045260246000fd5b9060005260206000209060060201600101805480602002602001604051908101604052809291908181526020018280548015610c2257602002820191906000526020600020905b81546001600160a01b03168152600190910190602001808311610c04575b505050505090506000600260008a81526020019081526020016000208881548110610c5d57634e487b7160e01b600052603260045260246000fd5b9060005260206000209060060201600201805480602002602001604051908101604052809291908181526020018280548015610cb857602002820191906000526020600020905b815481526020019060010190808311610ca4575b505050505090508151600014610db35760005b8251811015610db157828181518110610cf457634e487b7160e01b600052603260045260246000fd5b60200260200101516001600160a01b03166342842e0e8789858581518110610d2c57634e487b7160e01b600052603260045260246000fd5b60209081029190910101516040516001600160e01b031960e086901b1681526001600160a01b0393841660048201529290911660248301526044820152606401600060405180830381600087803b158015610d8657600080fd5b505af1158015610d9a573d6000803e3d6000fd5b505050508080610da990611b67565b915050610ccb565b505b600089815260026020526040812080548a908110610de157634e487b7160e01b600052603260045260246000fd5b9060005260206000209060060201600301805480602002602001604051908101604052809291908181526020018280548015610e4657602002820191906000526020600020905b81546001600160a01b03168152600190910190602001808311610e28575b505050505090506000600260008c81526020019081526020016000208a81548110610e8157634e487b7160e01b600052603260045260246000fd5b9060005260206000209060060201600401805480602002602001604051908101604052809291908181526020018280548015610edc57602002820191906000526020600020905b815481526020019060010190808311610ec8575b505050505090508151600014610ff75760005b8251811015610ff557828181518110610f1857634e487b7160e01b600052603260045260246000fd5b60200260200101516001600160a01b03166323b872dd898b858581518110610f5057634e487b7160e01b600052603260045260246000fd5b60209081029190910101516040516001600160e01b031960e086901b1681526001600160a01b0393841660048201529290911660248301526044820152606401602060405180830381600087803b158015610faa57600080fd5b505af1158015610fbe573d6000803e3d6000fd5b505050506040513d601f19601f82011682018060405250810190610fe29190611738565b5080610fed81611b67565b915050610eef565b505b60008b81526001602090815260408083208054600360ff199091168117825590810180546001600160a01b0319166001600160a01b038d16179055600290925290912080548c90811061105a57634e487b7160e01b600052603260045260246000fd5b60009182526020909120600690910201805460ff1916600183600481111561109257634e487b7160e01b600052602160045260246000fd5b02179055507f7c4b1ac36879f29f24fcf73b4c55a5d189299e5a7aab7d669919575c1ab8153f8887878a888888886040516110d4989796959493929190611917565b60405180910390a15050505050505050505050565b6003602052816000526040600020818154811061110557600080fd5b60009182526020909120600790910201805460018201805460ff909216945091925061113090611b2c565b80601f016020809104026020016040519081016040528092919081815260200182805461115c90611b2c565b80156111a95780601f1061117e576101008083540402835291602001916111a9565b820191906000526020600020905b81548152906001019060200180831161118c57829003601f168201915b505050506002830154600384015460069094015492936001600160a01b03918216939116915085565b6004602052816000526040600020818154811061083457600080fd5b60008281526002602052604090208054839183913391908390811061122357634e487b7160e01b600052603260045260246000fd5b600091825260209091206006909102015461010090046001600160a01b0316146112845760405162461bcd60e51b815260206004820152601260248201527113db9b1e48109d5e595c88105b1b1bddd95960721b60448201526064016101fb565b600160008581526002602052604090208054859081106112b457634e487b7160e01b600052603260045260246000fd5b600091825260209091206006909102015460ff1660048111156112e757634e487b7160e01b600052602160045260246000fd5b146113285760405162461bcd60e51b815260206004820152601160248201527043616e27742043616e63656c6c206e6f7760781b60448201526064016101fb565b60008481526002602052604090208054600491908590811061135a57634e487b7160e01b600052603260045260246000fd5b60009182526020909120600690910201805460ff1916600183600481111561139257634e487b7160e01b600052602160045260246000fd5b021790555060408051338152602081018690529081018490527fa916c06d382a32a2d52751a0f59721c029227671188c07a99233bf72bd3c679b9060600160405180910390a150505050565b60016020819052600091825260409091208054918101805460ff9093169261113090611b2c565b82805461141190611b2c565b90600052602060002090601f0160209004810192826114335760008555611479565b82601f1061144c57805160ff1916838001178555611479565b82800160010185558215611479579182015b8281111561147957825182559160200191906001019061145e565b50611485929150611518565b5090565b828054828255906000526020600020908101928215611479579160200282015b8281111561147957825182546001600160a01b0319166001600160a01b039091161782556020909201916001909101906114a9565b828054828255906000526020600020908101928215611479579160200282018281111561147957825182559160200191906001019061145e565b5b808211156114855760008155600101611519565b80356001600160a01b038116811461154457600080fd5b919050565b600082601f830112611559578081fd5b8135602061156e61156983611b08565b611ad7565b80838252828201915082860187848660051b890101111561158d578586fd5b855b858110156115b2576115a08261152d565b8452928401929084019060010161158f565b5090979650505050505050565b600082601f8301126115cf578081fd5b813560206115df61156983611b08565b80838252828201915082860187848660051b89010111156115fe578586fd5b855b858110156115b257813584529284019290840190600101611600565b60006020828403121561162d578081fd5b6116368261152d565b9392505050565b6000806040838503121561164f578081fd5b6116588361152d565b946020939093013593505050565b60008060006060848603121561167a578081fd5b833567ffffffffffffffff80821115611691578283fd5b61169d87838801611549565b94506020915081860135818111156116b3578384fd5b6116bf888289016115bf565b9450506040860135818111156116d3578384fd5b8601601f810188136116e3578384fd5b8035828111156116f5576116f5611b8e565b611707601f8201601f19168501611ad7565b9250808352888482840101111561171c578485fd5b8084830185850137820190920192909252509194909350909150565b600060208284031215611749578081fd5b81518015158114611636578182fd5b600060208284031215611769578081fd5b5035919050565b600080600080600060a08688031215611787578081fd5b85359450602086013567ffffffffffffffff808211156117a5578283fd5b6117b189838a01611549565b955060408801359150808211156117c6578283fd5b6117d289838a016115bf565b945060608801359150808211156117e7578283fd5b6117f389838a01611549565b93506080880135915080821115611808578283fd5b50611815888289016115bf565b9150509295509295909350565b60008060408385031215611834578182fd5b50508035926020909101359150565b6000815180845260208085019450808401835b8381101561187b5781516001600160a01b031687529582019590820190600101611856565b509495945050505050565b6000815180845260208085019450808401835b8381101561187b57815187529582019590820190600101611899565b600581106118d357634e487b7160e01b600052602160045260246000fd5b9052565b6001600160a01b03841681526060602082018190526000906118fb90830185611843565b828103604084015261190d8185611886565b9695505050505050565b6001600160a01b0389811682526101006020830181905260009161193d8483018c611843565b91508382036040850152611951828b611886565b90891660608501528381036080850152905061196d8188611843565b905082810360a08401526119818187611886565b905082810360c08401526119958186611843565b905082810360e08401526119a98185611886565b9b9a5050505050505050505050565b6001600160a01b038616815260a0602082018190526000906119dc90830187611843565b82810360408401526119ee8187611886565b90508281036060840152611a028186611843565b90508281036080840152611a168185611886565b98975050505050505050565b60608101611a3082866118b5565b6001600160a01b0393909316602082015260400152919050565b611a5481876118b5565b6000602060a08184015286518060a0850152825b81811015611a845788810183015185820160c001528201611a68565b81811115611a95578360c083870101525b50601f01601f1916830160c0019150611abb905060408301866001600160a01b03169052565b6001600160a01b03939093166060820152608001529392505050565b604051601f8201601f1916810167ffffffffffffffff81118282101715611b0057611b00611b8e565b604052919050565b600067ffffffffffffffff821115611b2257611b22611b8e565b5060051b60200190565b600181811c90821680611b4057607f821691505b60208210811415611b6157634e487b7160e01b600052602260045260246000fd5b50919050565b6000600019821415611b8757634e487b7160e01b81526011600452602481fd5b5060010190565b634e487b7160e01b600052604160045260246000fdfea26469706673582212205737b0f02009edc879a3ccf23e4e9b95bf7ba04e0e2cbac039762f5aa08abdb164736f6c63430008040033",
  "linkReferences": {},
  "deployedLinkReferences": {}
}